{
  "_format": "hh-sol-artifact-1",
  "contractName": "BridgeCtxc",
  "sourceName": "contracts/BridgeCtxc.sol",
  "abi": [
    {
      "anonymous": false,
      "inputs": [
        {
          "indexed": false,
          "internalType": "address",
          "name": "oldAddress",
          "type": "address"
        },
        {
          "indexed": false,
          "internalType": "address",
          "name": "newAddress",
          "type": "address"
        }
      ],
      "name": "AdminChanged",
      "type": "event"
    },
    {
      "anonymous": false,
      "inputs": [
        {
          "indexed": true,
          "internalType": "address",
          "name": "from",
          "type": "address"
        },
        {
          "indexed": false,
          "internalType": "address",
          "name": "to",
          "type": "address"
        },
        {
          "indexed": false,
          "internalType": "uint256",
          "name": "amount",
          "type": "uint256"
        }
      ],
      "name": "Deposit",
      "type": "event"
    },
    {
      "anonymous": false,
      "inputs": [
        {
          "indexed": false,
          "internalType": "address",
          "name": "oldAddress",
          "type": "address"
        },
        {
          "indexed": false,
          "internalType": "address",
          "name": "newAddress",
          "type": "address"
        }
      ],
      "name": "OperatorChanged",
      "type": "event"
    },
    {
      "anonymous": false,
      "inputs": [
        {
          "indexed": false,
          "internalType": "address",
          "name": "account",
          "type": "address"
        }
      ],
      "name": "Paused",
      "type": "event"
    },
    {
      "anonymous": false,
      "inputs": [
        {
          "indexed": false,
          "internalType": "address",
          "name": "account",
          "type": "address"
        }
      ],
      "name": "Unpasued",
      "type": "event"
    },
    {
      "anonymous": false,
      "inputs": [
        {
          "indexed": true,
          "internalType": "address",
          "name": "to",
          "type": "address"
        },
        {
          "indexed": true,
          "internalType": "bytes32",
          "name": "taskHash",
          "type": "bytes32"
        },
        {
          "indexed": false,
          "internalType": "uint256",
          "name": "amount",
          "type": "uint256"
        }
      ],
      "name": "Withdraw",
      "type": "event"
    },
    {
      "inputs": [],
      "name": "administrator",
      "outputs": [
        {
          "internalType": "address",
          "name": "",
          "type": "address"
        }
      ],
      "stateMutability": "view",
      "type": "function"
    },
    {
      "inputs": [
        {
          "internalType": "address",
          "name": "newAdministratorAddr",
          "type": "address"
        }
      ],
      "name": "changeAdmin",
      "outputs": [],
      "stateMutability": "nonpayable",
      "type": "function"
    },
    {
      "inputs": [
        {
          "internalType": "address",
          "name": "newOperatorAddr",
          "type": "address"
        }
      ],
      "name": "changeOperator",
      "outputs": [],
      "stateMutability": "nonpayable",
      "type": "function"
    },
    {
      "inputs": [],
      "name": "checkPoint",
      "outputs": [
        {
          "internalType": "uint256",
          "name": "",
          "type": "uint256"
        }
      ],
      "stateMutability": "view",
      "type": "function"
    },
    {
      "inputs": [
        {
          "internalType": "address",
          "name": "to",
          "type": "address"
        },
        {
          "internalType": "uint256",
          "name": "amount",
          "type": "uint256"
        }
      ],
      "name": "deposit",
      "outputs": [],
      "stateMutability": "payable",
      "type": "function"
    },
    {
      "inputs": [],
      "name": "feeDeposit",
      "outputs": [
        {
          "internalType": "uint256",
          "name": "",
          "type": "uint256"
        }
      ],
      "stateMutability": "view",
      "type": "function"
    },
    {
      "inputs": [],
      "name": "feeWithdraw",
      "outputs": [
        {
          "internalType": "uint256",
          "name": "",
          "type": "uint256"
        }
      ],
      "stateMutability": "view",
      "type": "function"
    },
    {
      "inputs": [],
      "name": "feebalance",
      "outputs": [
        {
          "internalType": "uint256",
          "name": "",
          "type": "uint256"
        }
      ],
      "stateMutability": "view",
      "type": "function"
    },
    {
      "inputs": [
        {
          "internalType": "address payable",
          "name": "feeAddr",
          "type": "address"
        }
      ],
      "name": "fetchFee",
      "outputs": [],
      "stateMutability": "nonpayable",
      "type": "function"
    },
    {
      "inputs": [
        {
          "internalType": "address",
          "name": "adminAddr",
          "type": "address"
        },
        {
          "internalType": "address",
          "name": "operatorAddr",
          "type": "address"
        }
      ],
      "name": "initialize",
      "outputs": [],
      "stateMutability": "nonpayable",
      "type": "function"
    },
    {
      "inputs": [],
      "name": "minValue",
      "outputs": [
        {
          "internalType": "uint256",
          "name": "",
          "type": "uint256"
        }
      ],
      "stateMutability": "view",
      "type": "function"
    },
    {
      "inputs": [],
      "name": "pause",
      "outputs": [],
      "stateMutability": "nonpayable",
      "type": "function"
    },
    {
      "inputs": [],
      "name": "paused",
      "outputs": [
        {
          "internalType": "bool",
          "name": "",
          "type": "bool"
        }
      ],
      "stateMutability": "view",
      "type": "function"
    },
    {
      "inputs": [],
      "name": "unpause",
      "outputs": [],
      "stateMutability": "nonpayable",
      "type": "function"
    },
    {
      "inputs": [
        {
          "internalType": "uint256",
          "name": "newCheckPoint",
          "type": "uint256"
        }
      ],
      "name": "updateCheckpoint",
      "outputs": [],
      "stateMutability": "nonpayable",
      "type": "function"
    },
    {
      "inputs": [
        {
          "internalType": "uint256",
          "name": "newFee",
          "type": "uint256"
        }
      ],
      "name": "updateDepositFee",
      "outputs": [],
      "stateMutability": "nonpayable",
      "type": "function"
    },
    {
      "inputs": [
        {
          "internalType": "uint256",
          "name": "newValue",
          "type": "uint256"
        }
      ],
      "name": "updateMinValue",
      "outputs": [],
      "stateMutability": "nonpayable",
      "type": "function"
    },
    {
      "inputs": [
        {
          "internalType": "uint256",
          "name": "newFee",
          "type": "uint256"
        }
      ],
      "name": "updateWithdrawFee",
      "outputs": [],
      "stateMutability": "nonpayable",
      "type": "function"
    },
    {
      "inputs": [
        {
          "internalType": "address payable",
          "name": "to",
          "type": "address"
        },
        {
          "internalType": "uint256",
          "name": "amount",
          "type": "uint256"
        },
        {
          "internalType": "bytes32",
          "name": "taskHash",
          "type": "bytes32"
        }
      ],
      "name": "withdraw",
      "outputs": [],
      "stateMutability": "nonpayable",
      "type": "function"
    }
  ],
  "bytecode": "0x608060405234801561001057600080fd5b50611efe806100206000396000f3fe6080604052600436106101145760003560e01c80635c975abb116100a0578063aa5381ed11610064578063aa5381ed1461032e578063abca729014610357578063cff805ab14610382578063daf635de146103ad578063f53d0a8e146103d657610114565b80635c975abb1461026d5780636561e6ba146102985780638456cb59146102c35780638f283970146102da578063963e63c71461030357610114565b80633f4ba83a116100e75780633f4ba83a146101bd57806347e7ef24146101d4578063485cc955146101f0578063486a3b4f1461021957806358f6c2311461024457610114565b8063017def571461011957806306394c9b14610142578063106e62901461016b5780633e92aebe14610194575b600080fd5b34801561012557600080fd5b50610140600480360381019061013b919061165e565b610401565b005b34801561014e57600080fd5b5061016960048036038101906101649190611531565b61052e565b005b34801561017757600080fd5b50610192600480360381019061018d919061158b565b610744565b005b3480156101a057600080fd5b506101bb60048036038101906101b6919061165e565b610915565b005b3480156101c957600080fd5b506101d26109f3565b005b6101ee60048036038101906101e9919061161e565b610b26565b005b3480156101fc57600080fd5b50610217600480360381019061021291906115de565b610c64565b005b34801561022557600080fd5b5061022e610e03565b60405161023b9190611aea565b60405180910390f35b34801561025057600080fd5b5061026b6004803603810190610266919061165e565b610e09565b005b34801561027957600080fd5b50610282610ee7565b60405161028f919061190f565b60405180910390f35b3480156102a457600080fd5b506102ad610efe565b6040516102ba9190611aea565b60405180910390f35b3480156102cf57600080fd5b506102d8610f04565b005b3480156102e657600080fd5b5061030160048036038101906102fc9190611531565b611037565b005b34801561030f57600080fd5b5061031861124c565b6040516103259190611aea565b60405180910390f35b34801561033a57600080fd5b506103556004803603810190610350919061155e565b611252565b005b34801561036357600080fd5b5061036c61137b565b6040516103799190611aea565b60405180910390f35b34801561038e57600080fd5b50610397611381565b6040516103a49190611aea565b60405180910390f35b3480156103b957600080fd5b506103d460048036038101906103cf919061165e565b611387565b005b3480156103e257600080fd5b506103eb6114b4565b6040516103f891906118a2565b60405180910390f35b3373ffffffffffffffffffffffffffffffffffffffff16600060029054906101000a900473ffffffffffffffffffffffffffffffffffffffff1673ffffffffffffffffffffffffffffffffffffffff1614610491576040517f08c379a000000000000000000000000000000000000000000000000000000000815260040161048890611a8a565b60405180910390fd5b600160149054906101000a900460ff166104e0576040517f08c379a00000000000000000000000000000000000000000000000000000000081526004016104d79061194a565b60405180910390fd5b6000811015610524576040517f08c379a000000000000000000000000000000000000000000000000000000000815260040161051b906119aa565b60405180910390fd5b8060028190555050565b3373ffffffffffffffffffffffffffffffffffffffff16600060029054906101000a900473ffffffffffffffffffffffffffffffffffffffff1673ffffffffffffffffffffffffffffffffffffffff16146105be576040517f08c379a00000000000000000000000000000000000000000000000000000000081526004016105b590611a8a565b60405180910390fd5b600160149054906101000a900460ff1661060d576040517f08c379a00000000000000000000000000000000000000000000000000000000081526004016106049061194a565b60405180910390fd5b600073ffffffffffffffffffffffffffffffffffffffff168173ffffffffffffffffffffffffffffffffffffffff16141561067d576040517f08c379a000000000000000000000000000000000000000000000000000000000815260040161067490611a2a565b60405180910390fd5b6000600160009054906101000a900473ffffffffffffffffffffffffffffffffffffffff16905081600160006101000a81548173ffffffffffffffffffffffffffffffffffffffff021916908373ffffffffffffffffffffffffffffffffffffffff1602179055507fd58299b712891143e76310d5e664c4203c940a67db37cf856bdaa3c5c76a802c81600160009054906101000a900473ffffffffffffffffffffffffffffffffffffffff166040516107389291906118bd565b60405180910390a15050565b3373ffffffffffffffffffffffffffffffffffffffff16600160009054906101000a900473ffffffffffffffffffffffffffffffffffffffff1673ffffffffffffffffffffffffffffffffffffffff16146107d4576040517f08c379a00000000000000000000000000000000000000000000000000000000081526004016107cb9061198a565b60405180910390fd5b600160149054906101000a900460ff1615610824576040517f08c379a000000000000000000000000000000000000000000000000000000000815260040161081b906119ca565b60405180910390fd5b81471015610867576040517f08c379a000000000000000000000000000000000000000000000000000000000815260040161085e90611aca565b60405180910390fd5b6000600354836108779190611b16565b90508373ffffffffffffffffffffffffffffffffffffffff166108fc829081150290604051600060405180830381858888f193505050501580156108bf573d6000803e3d6000fd5b50818473ffffffffffffffffffffffffffffffffffffffff167fc3ded2be7db21b1af963f267d27750e4a15f174547d88b886b9bda43e2c6fa32836040516109079190611aea565b60405180910390a350505050565b3373ffffffffffffffffffffffffffffffffffffffff16600160009054906101000a900473ffffffffffffffffffffffffffffffffffffffff1673ffffffffffffffffffffffffffffffffffffffff16146109a5576040517f08c379a000000000000000000000000000000000000000000000000000000000815260040161099c9061198a565b60405180910390fd5b60065481116109e9576040517f08c379a00000000000000000000000000000000000000000000000000000000081526004016109e090611a6a565b60405180910390fd5b8060068190555050565b3373ffffffffffffffffffffffffffffffffffffffff16600060029054906101000a900473ffffffffffffffffffffffffffffffffffffffff1673ffffffffffffffffffffffffffffffffffffffff1614610a83576040517f08c379a0000000000000000000000000000000000000000000000000000000008152600401610a7a90611a8a565b60405180910390fd5b600160149054906101000a900460ff16610ad2576040517f08c379a0000000000000000000000000000000000000000000000000000000008152600401610ac99061194a565b60405180910390fd5b6000600160146101000a81548160ff0219169083151502179055507f5610140d7bbd7817eb8ad115e1498b19a6e1ef49c79eeb78a91e413c6648bd4033604051610b1c91906118a2565b60405180910390a1565b600160149054906101000a900460ff1615610b76576040517f08c379a0000000000000000000000000000000000000000000000000000000008152600401610b6d906119ca565b60405180910390fd5b600554811015610bbb576040517f08c379a0000000000000000000000000000000000000000000000000000000008152600401610bb290611aaa565b60405180910390fd5b803414610bfd576040517f08c379a0000000000000000000000000000000000000000000000000000000008152600401610bf490611a0a565b60405180910390fd5b600060025434610c0d9190611b16565b90503373ffffffffffffffffffffffffffffffffffffffff167f5548c837ab068cf56a2c2479df0882a4922fd203edb7517321831d95078c5f628483604051610c579291906118e6565b60405180910390a2505050565b600060019054906101000a900460ff1680610c8a575060008054906101000a900460ff16155b610cc9576040517f08c379a0000000000000000000000000000000000000000000000000000000008152600401610cc0906119ea565b60405180910390fd5b60008060019054906101000a900460ff161590508015610d19576001600060016101000a81548160ff02191690831515021790555060016000806101000a81548160ff0219169083151502179055505b82600060026101000a81548173ffffffffffffffffffffffffffffffffffffffff021916908373ffffffffffffffffffffffffffffffffffffffff16021790555081600160006101000a81548173ffffffffffffffffffffffffffffffffffffffff021916908373ffffffffffffffffffffffffffffffffffffffff1602179055506000600160146101000a81548160ff0219169083151502179055506000600281905550600060038190555060006004819055506000600581905550436006819055508015610dfe5760008060016101000a81548160ff0219169083151502179055505b505050565b60045481565b3373ffffffffffffffffffffffffffffffffffffffff16600060029054906101000a900473ffffffffffffffffffffffffffffffffffffffff1673ffffffffffffffffffffffffffffffffffffffff1614610e99576040517f08c379a0000000000000000000000000000000000000000000000000000000008152600401610e9090611a8a565b60405180910390fd5b6000811015610edd576040517f08c379a0000000000000000000000000000000000000000000000000000000008152600401610ed49061192a565b60405180910390fd5b8060058190555050565b6000600160149054906101000a900460ff16905090565b60035481565b3373ffffffffffffffffffffffffffffffffffffffff16600060029054906101000a900473ffffffffffffffffffffffffffffffffffffffff1673ffffffffffffffffffffffffffffffffffffffff1614610f94576040517f08c379a0000000000000000000000000000000000000000000000000000000008152600401610f8b90611a8a565b60405180910390fd5b600160149054906101000a900460ff1615610fe4576040517f08c379a0000000000000000000000000000000000000000000000000000000008152600401610fdb906119ca565b60405180910390fd5b60018060146101000a81548160ff0219169083151502179055507f62e78cea01bee320cd4e420270b5ea74000d11b0c9f74754ebdbfc544b05a2583360405161102d91906118a2565b60405180910390a1565b3373ffffffffffffffffffffffffffffffffffffffff16600060029054906101000a900473ffffffffffffffffffffffffffffffffffffffff1673ffffffffffffffffffffffffffffffffffffffff16146110c7576040517f08c379a00000000000000000000000000000000000000000000000000000000081526004016110be90611a8a565b60405180910390fd5b600160149054906101000a900460ff16611116576040517f08c379a000000000000000000000000000000000000000000000000000000000815260040161110d9061194a565b60405180910390fd5b600073ffffffffffffffffffffffffffffffffffffffff168173ffffffffffffffffffffffffffffffffffffffff161415611186576040517f08c379a000000000000000000000000000000000000000000000000000000000815260040161117d9061196a565b60405180910390fd5b60008060029054906101000a900473ffffffffffffffffffffffffffffffffffffffff16905081600060026101000a81548173ffffffffffffffffffffffffffffffffffffffff021916908373ffffffffffffffffffffffffffffffffffffffff1602179055507f7e644d79422f17c01e4894b5f4f588d331ebfa28653d42ae832dc59e38c9798f81600060029054906101000a900473ffffffffffffffffffffffffffffffffffffffff166040516112409291906118bd565b60405180910390a15050565b60055481565b3373ffffffffffffffffffffffffffffffffffffffff16600060029054906101000a900473ffffffffffffffffffffffffffffffffffffffff1673ffffffffffffffffffffffffffffffffffffffff16146112e2576040517f08c379a00000000000000000000000000000000000000000000000000000000081526004016112d990611a8a565b60405180910390fd5b600060045411611327576040517f08c379a000000000000000000000000000000000000000000000000000000000815260040161131e90611a4a565b60405180910390fd5b8073ffffffffffffffffffffffffffffffffffffffff166108fc6004549081150290604051600060405180830381858888f1935050505015801561136f573d6000803e3d6000fd5b50600060048190555050565b60025481565b60065481565b3373ffffffffffffffffffffffffffffffffffffffff16600060029054906101000a900473ffffffffffffffffffffffffffffffffffffffff1673ffffffffffffffffffffffffffffffffffffffff1614611417576040517f08c379a000000000000000000000000000000000000000000000000000000000815260040161140e90611a8a565b60405180910390fd5b600160149054906101000a900460ff16611466576040517f08c379a000000000000000000000000000000000000000000000000000000000815260040161145d9061194a565b60405180910390fd5b60008110156114aa576040517f08c379a00000000000000000000000000000000000000000000000000000000081526004016114a1906119aa565b60405180910390fd5b8060038190555050565b60008060029054906101000a900473ffffffffffffffffffffffffffffffffffffffff16905090565b6000813590506114ec81611e6c565b92915050565b60008135905061150181611e83565b92915050565b60008135905061151681611e9a565b92915050565b60008135905061152b81611eb1565b92915050565b60006020828403121561154757611546611bdd565b5b6000611555848285016114dd565b91505092915050565b60006020828403121561157457611573611bdd565b5b6000611582848285016114f2565b91505092915050565b6000806000606084860312156115a4576115a3611bdd565b5b60006115b2868287016114f2565b93505060206115c38682870161151c565b92505060406115d486828701611507565b9150509250925092565b600080604083850312156115f5576115f4611bdd565b5b6000611603858286016114dd565b9250506020611614858286016114dd565b9150509250929050565b6000806040838503121561163557611634611bdd565b5b6000611643858286016114dd565b92505060206116548582860161151c565b9150509250929050565b60006020828403121561167457611673611bdd565b5b60006116828482850161151c565b91505092915050565b61169481611b4a565b82525050565b6116a381611b6e565b82525050565b60006116b6600d83611b05565b91506116c182611be2565b602082019050919050565b60006116d9601383611b05565b91506116e482611c0b565b602082019050919050565b60006116fc602583611b05565b915061170782611c34565b604082019050919050565b600061171f601a83611b05565b915061172a82611c83565b602082019050919050565b6000611742600b83611b05565b915061174d82611cac565b602082019050919050565b6000611765601083611b05565b915061177082611cd5565b602082019050919050565b6000611788602e83611b05565b915061179382611cfe565b604082019050919050565b60006117ab601683611b05565b91506117b682611d4d565b602082019050919050565b60006117ce601f83611b05565b91506117d982611d76565b602082019050919050565b60006117f1601283611b05565b91506117fc82611d9f565b602082019050919050565b6000611814601283611b05565b915061181f82611dc8565b602082019050919050565b6000611837601f83611b05565b915061184282611df1565b602082019050919050565b600061185a601a83611b05565b915061186582611e1a565b602082019050919050565b600061187d601783611b05565b915061188882611e43565b602082019050919050565b61189c81611ba4565b82525050565b60006020820190506118b7600083018461168b565b92915050565b60006040820190506118d2600083018561168b565b6118df602083018461168b565b9392505050565b60006040820190506118fb600083018561168b565b6119086020830184611893565b9392505050565b6000602082019050611924600083018461169a565b92915050565b60006020820190508181036000830152611943816116a9565b9050919050565b60006020820190508181036000830152611963816116cc565b9050919050565b60006020820190508181036000830152611983816116ef565b9050919050565b600060208201905081810360008301526119a381611712565b9050919050565b600060208201905081810360008301526119c381611735565b9050919050565b600060208201905081810360008301526119e381611758565b9050919050565b60006020820190508181036000830152611a038161177b565b9050919050565b60006020820190508181036000830152611a238161179e565b9050919050565b60006020820190508181036000830152611a43816117c1565b9050919050565b60006020820190508181036000830152611a63816117e4565b9050919050565b60006020820190508181036000830152611a8381611807565b9050919050565b60006020820190508181036000830152611aa38161182a565b9050919050565b60006020820190508181036000830152611ac38161184d565b9050919050565b60006020820190508181036000830152611ae381611870565b9050919050565b6000602082019050611aff6000830184611893565b92915050565b600082825260208201905092915050565b6000611b2182611ba4565b9150611b2c83611ba4565b925082821015611b3f57611b3e611bae565b5b828203905092915050565b6000611b5582611b84565b9050919050565b6000611b6782611b84565b9050919050565b60008115159050919050565b6000819050919050565b600073ffffffffffffffffffffffffffffffffffffffff82169050919050565b6000819050919050565b7f4e487b7100000000000000000000000000000000000000000000000000000000600052601160045260246000fd5b600080fd5b7f696e76616c69642076616c756500000000000000000000000000000000000000600082015250565b7f50617561626c653a206e6f742070617573656400000000000000000000000000600082015250565b7f6e65772061646d696e6973747261746f7220697320746865207a65726f20616460008201527f6472657373000000000000000000000000000000000000000000000000000000602082015250565b7f63616c6c6572206973206e6f7420746865206f70657261746f72000000000000600082015250565b7f696e76616c696420666565000000000000000000000000000000000000000000600082015250565b7f5061757361626c653a2070617573656400000000000000000000000000000000600082015250565b7f496e697469616c697a61626c653a20636f6e747261637420697320616c72656160008201527f647920696e697469616c697a6564000000000000000000000000000000000000602082015250565b7f496e76616c6964206465706f73697420616d6f756e7400000000000000000000600082015250565b7f6e65772072656c6179657220697320746865207a65726f206164647265737300600082015250565b7f6e6f2066656520746f2077697468647261770000000000000000000000000000600082015250565b7f696e76616c696420636865636b706f696e740000000000000000000000000000600082015250565b7f63616c6c6572206973206e6f74207468652061646d696e6973747261746f7200600082015250565b7f6465706f73697420616d6f756e7420746f6f20736d616c6c6572000000000000600082015250565b7f6e6f7420656e6f756768206e617469766120746f6b656e000000000000000000600082015250565b611e7581611b4a565b8114611e8057600080fd5b50565b611e8c81611b5c565b8114611e9757600080fd5b50565b611ea381611b7a565b8114611eae57600080fd5b50565b611eba81611ba4565b8114611ec557600080fd5b5056fea2646970667358221220751f34a6b4f6d677029ef4df589b660f2210e983c1d6159009f8aed771c83a6064736f6c63430008050033",
  "linkReferences": {},
  "deployedLinkReferences": {}
}