{
  "_format": "hh-sol-artifact-1",
  "contractName": "BridgeHeco",
  "sourceName": "contracts/BridgeHeco.sol",
  "abi": [
    {
      "anonymous": false,
      "inputs": [
        {
          "indexed": false,
          "internalType": "address",
          "name": "oldAddress",
          "type": "address"
        },
        {
          "indexed": false,
          "internalType": "address",
          "name": "newAddress",
          "type": "address"
        }
      ],
      "name": "ChangeAdmin",
      "type": "event"
    },
    {
      "anonymous": false,
      "inputs": [
        {
          "indexed": true,
          "internalType": "address",
          "name": "from",
          "type": "address"
        },
        {
          "indexed": false,
          "internalType": "address",
          "name": "to",
          "type": "address"
        },
        {
          "indexed": false,
          "internalType": "uint256",
          "name": "amount",
          "type": "uint256"
        }
      ],
      "name": "DepositToken",
      "type": "event"
    },
    {
      "anonymous": false,
      "inputs": [
        {
          "indexed": false,
          "internalType": "address",
          "name": "account",
          "type": "address"
        }
      ],
      "name": "Paused",
      "type": "event"
    },
    {
      "anonymous": false,
      "inputs": [
        {
          "indexed": false,
          "internalType": "address",
          "name": "account",
          "type": "address"
        }
      ],
      "name": "Unpasued",
      "type": "event"
    },
    {
      "anonymous": false,
      "inputs": [
        {
          "indexed": true,
          "internalType": "address",
          "name": "to",
          "type": "address"
        },
        {
          "indexed": true,
          "internalType": "bytes32",
          "name": "taskHash",
          "type": "bytes32"
        },
        {
          "indexed": false,
          "internalType": "uint256",
          "name": "amount",
          "type": "uint256"
        }
      ],
      "name": "WithdrawToken",
      "type": "event"
    },
    {
      "inputs": [],
      "name": "administrator",
      "outputs": [
        {
          "internalType": "address",
          "name": "",
          "type": "address"
        }
      ],
      "stateMutability": "view",
      "type": "function"
    },
    {
      "inputs": [
        {
          "internalType": "address",
          "name": "newAdminAddr",
          "type": "address"
        }
      ],
      "name": "changeAdmin",
      "outputs": [],
      "stateMutability": "nonpayable",
      "type": "function"
    },
    {
      "inputs": [
        {
          "internalType": "address",
          "name": "newOperatorAddr",
          "type": "address"
        }
      ],
      "name": "changeOperator",
      "outputs": [],
      "stateMutability": "nonpayable",
      "type": "function"
    },
    {
      "inputs": [],
      "name": "checkPoint",
      "outputs": [
        {
          "internalType": "uint256",
          "name": "",
          "type": "uint256"
        }
      ],
      "stateMutability": "view",
      "type": "function"
    },
    {
      "inputs": [
        {
          "internalType": "address",
          "name": "to",
          "type": "address"
        },
        {
          "internalType": "uint256",
          "name": "amount",
          "type": "uint256"
        }
      ],
      "name": "depositToken",
      "outputs": [],
      "stateMutability": "nonpayable",
      "type": "function"
    },
    {
      "inputs": [
        {
          "internalType": "address",
          "name": "adminAddr",
          "type": "address"
        },
        {
          "internalType": "address",
          "name": "operatorAddr",
          "type": "address"
        }
      ],
      "name": "initialize",
      "outputs": [],
      "stateMutability": "nonpayable",
      "type": "function"
    },
    {
      "inputs": [],
      "name": "minValue",
      "outputs": [
        {
          "internalType": "uint256",
          "name": "",
          "type": "uint256"
        }
      ],
      "stateMutability": "view",
      "type": "function"
    },
    {
      "inputs": [],
      "name": "pause",
      "outputs": [],
      "stateMutability": "nonpayable",
      "type": "function"
    },
    {
      "inputs": [],
      "name": "paused",
      "outputs": [
        {
          "internalType": "bool",
          "name": "",
          "type": "bool"
        }
      ],
      "stateMutability": "view",
      "type": "function"
    },
    {
      "inputs": [],
      "name": "tokenAddress",
      "outputs": [
        {
          "internalType": "address",
          "name": "",
          "type": "address"
        }
      ],
      "stateMutability": "view",
      "type": "function"
    },
    {
      "inputs": [],
      "name": "unpause",
      "outputs": [],
      "stateMutability": "nonpayable",
      "type": "function"
    },
    {
      "inputs": [
        {
          "internalType": "uint256",
          "name": "newCheckPoint",
          "type": "uint256"
        }
      ],
      "name": "updateCheckpoint",
      "outputs": [],
      "stateMutability": "nonpayable",
      "type": "function"
    },
    {
      "inputs": [
        {
          "internalType": "uint256",
          "name": "newValue",
          "type": "uint256"
        }
      ],
      "name": "updateMinValue",
      "outputs": [],
      "stateMutability": "nonpayable",
      "type": "function"
    },
    {
      "inputs": [
        {
          "internalType": "address",
          "name": "to",
          "type": "address"
        },
        {
          "internalType": "uint256",
          "name": "amount",
          "type": "uint256"
        },
        {
          "internalType": "bytes32",
          "name": "taskHash",
          "type": "bytes32"
        }
      ],
      "name": "withdrawToken",
      "outputs": [],
      "stateMutability": "nonpayable",
      "type": "function"
    }
  ],
  "bytecode": "0x608060405234801561001057600080fd5b50613864806100206000396000f3fe60806040523480156200001157600080fd5b5060043610620001005760003560e01c80638456cb5911620000995780639d76ea58116200006f5780639d76ea5814620002215780639daddea51462000243578063cff805ab1462000263578063f53d0a8e14620002855762000100565b80638456cb5914620001d35780638f28397014620001df578063963e63c714620001ff5762000100565b80633f4ba83a11620000db5780633f4ba83a1462000165578063485cc955146200017157806358f6c23114620001915780635c975abb14620001b15762000100565b806306394c9b1462000105578063338b5dea14620001255780633e92aebe1462000145575b600080fd5b6200012360048036038101906200011d9190620010e4565b620002a7565b005b6200014360048036038101906200013d91906200115d565b62000442565b005b6200016360048036038101906200015d919062001200565b620006bc565b005b6200016f620007a0565b005b6200018f600480360381019062000189919062001116565b620008d9565b005b620001af6004803603810190620001a9919062001200565b620009ff565b005b620001bb62000ae1565b604051620001ca9190620014bb565b60405180910390f35b620001dd62000af8565b005b620001fd6004803603810190620001f79190620010e4565b62000c31565b005b6200020962000e4c565b60405162000218919062001663565b60405180910390f35b6200022b62000e52565b6040516200023a919062001444565b60405180910390f35b6200026160048036038101906200025b9190620011a4565b62000e7c565b005b6200026d6200104b565b6040516200027c919062001663565b60405180910390f35b6200028f62001051565b6040516200029e919062001444565b60405180910390f35b3373ffffffffffffffffffffffffffffffffffffffff1660008054906101000a900473ffffffffffffffffffffffffffffffffffffffff1673ffffffffffffffffffffffffffffffffffffffff161462000338576040517f08c379a00000000000000000000000000000000000000000000000000000000081526004016200032f90620015fd565b60405180910390fd5b600160149054906101000a900460ff16156200038b576040517f08c379a000000000000000000000000000000000000000000000000000000000815260040162000382906200153e565b60405180910390fd5b600073ffffffffffffffffffffffffffffffffffffffff168173ffffffffffffffffffffffffffffffffffffffff161415620003fe576040517f08c379a0000000000000000000000000000000000000000000000000000000008152600401620003f590620015db565b60405180910390fd5b80600160006101000a81548173ffffffffffffffffffffffffffffffffffffffff021916908373ffffffffffffffffffffffffffffffffffffffff16021790555050565b600160149054906101000a900460ff161562000495576040517f08c379a00000000000000000000000000000000000000000000000000000000081526004016200048c906200153e565b60405180910390fd5b600354811015620004dd576040517f08c379a0000000000000000000000000000000000000000000000000000000008152600401620004d49062001597565b60405180910390fd5b80600260009054906101000a900473ffffffffffffffffffffffffffffffffffffffff1673ffffffffffffffffffffffffffffffffffffffff166370a08231336040518263ffffffff1660e01b81526004016200053b919062001444565b60206040518083038186803b1580156200055457600080fd5b505afa15801562000569573d6000803e3d6000fd5b505050506040513d601f19601f820116820180604052508101906200058f919062001232565b1015620005d3576040517f08c379a0000000000000000000000000000000000000000000000000000000008152600401620005ca9062001641565b60405180910390fd5b600260009054906101000a900473ffffffffffffffffffffffffffffffffffffffff1673ffffffffffffffffffffffffffffffffffffffff16639dc29fac33836040518363ffffffff1660e01b8152600401620006329291906200148e565b600060405180830381600087803b1580156200064d57600080fd5b505af115801562000662573d6000803e3d6000fd5b505050503373ffffffffffffffffffffffffffffffffffffffff167f4b3f81827ede20c81afbf1bb77b954afcdcae24d391d99042310cb1d9210dd578383604051620006b09291906200148e565b60405180910390a25050565b3373ffffffffffffffffffffffffffffffffffffffff16600160009054906101000a900473ffffffffffffffffffffffffffffffffffffffff1673ffffffffffffffffffffffffffffffffffffffff16146200074f576040517f08c379a000000000000000000000000000000000000000000000000000000000815260040162000746906200151c565b60405180910390fd5b600454811162000796576040517f08c379a00000000000000000000000000000000000000000000000000000000081526004016200078d90620015b9565b60405180910390fd5b8060048190555050565b3373ffffffffffffffffffffffffffffffffffffffff1660008054906101000a900473ffffffffffffffffffffffffffffffffffffffff1673ffffffffffffffffffffffffffffffffffffffff161462000831576040517f08c379a00000000000000000000000000000000000000000000000000000000081526004016200082890620015fd565b60405180910390fd5b600160149054906101000a900460ff1662000883576040517f08c379a00000000000000000000000000000000000000000000000000000000081526004016200087a906200161f565b60405180910390fd5b6000600160146101000a81548160ff0219169083151502179055507f5610140d7bbd7817eb8ad115e1498b19a6e1ef49c79eeb78a91e413c6648bd4033604051620008cf919062001444565b60405180910390a1565b816000806101000a81548173ffffffffffffffffffffffffffffffffffffffff021916908373ffffffffffffffffffffffffffffffffffffffff16021790555080600160006101000a81548173ffffffffffffffffffffffffffffffffffffffff021916908373ffffffffffffffffffffffffffffffffffffffff16021790555060405162000968906200107a565b620009739062001560565b604051809103906000f08015801562000990573d6000803e3d6000fd5b50600260006101000a81548173ffffffffffffffffffffffffffffffffffffffff021916908373ffffffffffffffffffffffffffffffffffffffff1602179055506000600160146101000a81548160ff0219169083151502179055506000600381905550436004819055505050565b3373ffffffffffffffffffffffffffffffffffffffff1660008054906101000a900473ffffffffffffffffffffffffffffffffffffffff1673ffffffffffffffffffffffffffffffffffffffff161462000a90576040517f08c379a000000000000000000000000000000000000000000000000000000000815260040162000a8790620015fd565b60405180910390fd5b600081101562000ad7576040517f08c379a000000000000000000000000000000000000000000000000000000000815260040162000ace90620014d8565b60405180910390fd5b8060038190555050565b6000600160149054906101000a900460ff16905090565b3373ffffffffffffffffffffffffffffffffffffffff1660008054906101000a900473ffffffffffffffffffffffffffffffffffffffff1673ffffffffffffffffffffffffffffffffffffffff161462000b89576040517f08c379a000000000000000000000000000000000000000000000000000000000815260040162000b8090620015fd565b60405180910390fd5b600160149054906101000a900460ff161562000bdc576040517f08c379a000000000000000000000000000000000000000000000000000000000815260040162000bd3906200153e565b60405180910390fd5b60018060146101000a81548160ff0219169083151502179055507f62e78cea01bee320cd4e420270b5ea74000d11b0c9f74754ebdbfc544b05a2583360405162000c27919062001444565b60405180910390a1565b3373ffffffffffffffffffffffffffffffffffffffff1660008054906101000a900473ffffffffffffffffffffffffffffffffffffffff1673ffffffffffffffffffffffffffffffffffffffff161462000cc2576040517f08c379a000000000000000000000000000000000000000000000000000000000815260040162000cb990620015fd565b60405180910390fd5b600160149054906101000a900460ff1662000d14576040517f08c379a000000000000000000000000000000000000000000000000000000000815260040162000d0b906200161f565b60405180910390fd5b600073ffffffffffffffffffffffffffffffffffffffff168173ffffffffffffffffffffffffffffffffffffffff16141562000d87576040517f08c379a000000000000000000000000000000000000000000000000000000000815260040162000d7e90620014fa565b60405180910390fd5b60008060009054906101000a900473ffffffffffffffffffffffffffffffffffffffff169050816000806101000a81548173ffffffffffffffffffffffffffffffffffffffff021916908373ffffffffffffffffffffffffffffffffffffffff1602179055507fcf9b665e0639e0b81a8db37b60ac7ddf45aeb1b484e11adeb7dff4bf4a3a62588160008054906101000a900473ffffffffffffffffffffffffffffffffffffffff1660405162000e4092919062001461565b60405180910390a15050565b60035481565b6000600260009054906101000a900473ffffffffffffffffffffffffffffffffffffffff16905090565b3373ffffffffffffffffffffffffffffffffffffffff16600160009054906101000a900473ffffffffffffffffffffffffffffffffffffffff1673ffffffffffffffffffffffffffffffffffffffff161462000f0f576040517f08c379a000000000000000000000000000000000000000000000000000000000815260040162000f06906200151c565b60405180910390fd5b600160149054906101000a900460ff161562000f62576040517f08c379a000000000000000000000000000000000000000000000000000000000815260040162000f59906200153e565b60405180910390fd5b600260009054906101000a900473ffffffffffffffffffffffffffffffffffffffff1673ffffffffffffffffffffffffffffffffffffffff166340c10f1984846040518363ffffffff1660e01b815260040162000fc19291906200148e565b600060405180830381600087803b15801562000fdc57600080fd5b505af115801562000ff1573d6000803e3d6000fd5b50505050808373ffffffffffffffffffffffffffffffffffffffff167f02b887c933ba6de72a0834b12a5a62993fa616ca8647dd13e8b00eebc0dbc9b8846040516200103e919062001663565b60405180910390a3505050565b60045481565b60008060009054906101000a900473ffffffffffffffffffffffffffffffffffffffff16905090565b611f0d806200192283390190565b6000813590506200109981620018d3565b92915050565b600081359050620010b081620018ed565b92915050565b600081359050620010c78162001907565b92915050565b600081519050620010de8162001907565b92915050565b600060208284031215620010fd57620010fc620016e5565b5b60006200110d8482850162001088565b91505092915050565b6000806040838503121562001130576200112f620016e5565b5b6000620011408582860162001088565b9250506020620011538582860162001088565b9150509250929050565b60008060408385031215620011775762001176620016e5565b5b6000620011878582860162001088565b92505060206200119a85828601620010b6565b9150509250929050565b600080600060608486031215620011c057620011bf620016e5565b5b6000620011d08682870162001088565b9350506020620011e386828701620010b6565b9250506040620011f6868287016200109f565b9150509250925092565b600060208284031215620012195762001218620016e5565b5b60006200122984828501620010b6565b91505092915050565b6000602082840312156200124b576200124a620016e5565b5b60006200125b84828501620010cd565b91505092915050565b6200126f8162001691565b82525050565b6200128081620016a5565b82525050565b600062001295600d8362001680565b9150620012a282620016ea565b602082019050919050565b6000620012bc60258362001680565b9150620012c98262001713565b604082019050919050565b6000620012e3601a8362001680565b9150620012f08262001762565b602082019050919050565b60006200130a60108362001680565b915062001317826200178b565b602082019050919050565b60006200133160058362001680565b91506200133e82620017b4565b602082019050919050565b60006200135860208362001680565b91506200136582620017dd565b602082019050919050565b60006200137f60128362001680565b91506200138c8262001806565b602082019050919050565b6000620013a660208362001680565b9150620013b3826200182f565b602082019050919050565b6000620013cd601f8362001680565b9150620013da8262001858565b602082019050919050565b6000620013f460118362001680565b9150620014018262001881565b602082019050919050565b60006200141b601b8362001680565b91506200142882620018aa565b602082019050919050565b6200143e81620016db565b82525050565b60006020820190506200145b600083018462001264565b92915050565b600060408201905062001478600083018562001264565b62001487602083018462001264565b9392505050565b6000604082019050620014a5600083018562001264565b620014b4602083018462001433565b9392505050565b6000602082019050620014d2600083018462001275565b92915050565b60006020820190508181036000830152620014f38162001286565b9050919050565b600060208201905081810360008301526200151581620012ad565b9050919050565b600060208201905081810360008301526200153781620012d4565b9050919050565b600060208201905081810360008301526200155981620012fb565b9050919050565b600060408201905081810360008301526200157b8162001322565b90508181036020830152620015908162001322565b9050919050565b60006020820190508181036000830152620015b28162001349565b9050919050565b60006020820190508181036000830152620015d48162001370565b9050919050565b60006020820190508181036000830152620015f68162001397565b9050919050565b600060208201905081810360008301526200161881620013be565b9050919050565b600060208201905081810360008301526200163a81620013e5565b9050919050565b600060208201905081810360008301526200165c816200140c565b9050919050565b60006020820190506200167a600083018462001433565b92915050565b600082825260208201905092915050565b60006200169e82620016bb565b9050919050565b60008115159050919050565b6000819050919050565b600073ffffffffffffffffffffffffffffffffffffffff82169050919050565b6000819050919050565b600080fd5b7f696e76616c69642076616c756500000000000000000000000000000000000000600082015250565b7f6e65772061646d696e6973747261746f7220697320746865207a65726f20616460008201527f6472657373000000000000000000000000000000000000000000000000000000602082015250565b7f63616c6c6572206973206e6f7420746865206f70657261746f72000000000000600082015250565b7f7061737561626c653a2070617573656400000000000000000000000000000000600082015250565b7f6843747863000000000000000000000000000000000000000000000000000000600082015250565b7f6465706f73697420746f6b656e20616d6f756e7420746f6f20736d616c6c6572600082015250565b7f696e76616c696420636865636b706f696e740000000000000000000000000000600082015250565b7f6e6577206f70657261746f7220697320746865207a65726f2061646472657373600082015250565b7f63616c6c6572206973206e6f74207468652061646d696e6973747261746f7200600082015250565b7f70617561626c653a20756e706175736564000000000000000000000000000000600082015250565b7f6e6f7720656e6f75676820746f6b656e20746f206465706f7369740000000000600082015250565b620018de8162001691565b8114620018ea57600080fd5b50565b620018f881620016b1565b81146200190457600080fd5b50565b6200191281620016db565b81146200191e57600080fd5b5056fe60806040523480156200001157600080fd5b5060405162001f0d38038062001f0d8339818101604052810190620000379190620001e4565b8181816003908051906020019062000051929190620000b6565b5080600490805190602001906200006a929190620000b6565b50505033600560006101000a81548173ffffffffffffffffffffffffffffffffffffffff021916908373ffffffffffffffffffffffffffffffffffffffff1602179055505050620003ed565b828054620000c490620002fe565b90600052602060002090601f016020900481019282620000e8576000855562000134565b82601f106200010357805160ff191683800117855562000134565b8280016001018555821562000134579182015b828111156200013357825182559160200191906001019062000116565b5b50905062000143919062000147565b5090565b5b808211156200016257600081600090555060010162000148565b5090565b60006200017d620001778462000292565b62000269565b9050828152602081018484840111156200019c576200019b620003cd565b5b620001a9848285620002c8565b509392505050565b600082601f830112620001c957620001c8620003c8565b5b8151620001db84826020860162000166565b91505092915050565b60008060408385031215620001fe57620001fd620003d7565b5b600083015167ffffffffffffffff8111156200021f576200021e620003d2565b5b6200022d85828601620001b1565b925050602083015167ffffffffffffffff811115620002515762000250620003d2565b5b6200025f85828601620001b1565b9150509250929050565b60006200027562000288565b905062000283828262000334565b919050565b6000604051905090565b600067ffffffffffffffff821115620002b057620002af62000399565b5b620002bb82620003dc565b9050602081019050919050565b60005b83811015620002e8578082015181840152602081019050620002cb565b83811115620002f8576000848401525b50505050565b600060028204905060018216806200031757607f821691505b602082108114156200032e576200032d6200036a565b5b50919050565b6200033f82620003dc565b810181811067ffffffffffffffff8211171562000361576200036062000399565b5b80604052505050565b7f4e487b7100000000000000000000000000000000000000000000000000000000600052602260045260246000fd5b7f4e487b7100000000000000000000000000000000000000000000000000000000600052604160045260246000fd5b600080fd5b600080fd5b600080fd5b600080fd5b6000601f19601f8301169050919050565b611b1080620003fd6000396000f3fe608060405234801561001057600080fd5b50600436106100ea5760003560e01c806370a082311161008c578063a457c2d711610066578063a457c2d71461025f578063a9059cbb1461028f578063dd62ed3e146102bf578063f851a440146102ef576100ea565b806370a08231146101f557806395d89b41146102255780639dc29fac14610243576100ea565b806323b872dd116100c857806323b872dd1461015b578063313ce5671461018b57806339509351146101a957806340c10f19146101d9576100ea565b806306fdde03146100ef578063095ea7b31461010d57806318160ddd1461013d575b600080fd5b6100f761030d565b6040516101049190611407565b60405180910390f35b6101276004803603810190610122919061119b565b61039f565b60405161013491906113ec565b60405180910390f35b6101456103bd565b6040516101529190611589565b60405180910390f35b61017560048036038101906101709190611148565b6103c7565b60405161018291906113ec565b60405180910390f35b6101936104bf565b6040516101a091906115a4565b60405180910390f35b6101c360048036038101906101be919061119b565b6104c8565b6040516101d091906113ec565b60405180910390f35b6101f360048036038101906101ee919061119b565b610574565b005b61020f600480360381019061020a91906110db565b610612565b60405161021c9190611589565b60405180910390f35b61022d61065a565b60405161023a9190611407565b60405180910390f35b61025d6004803603810190610258919061119b565b6106ec565b005b6102796004803603810190610274919061119b565b61078a565b60405161028691906113ec565b60405180910390f35b6102a960048036038101906102a4919061119b565b610875565b6040516102b691906113ec565b60405180910390f35b6102d960048036038101906102d49190611108565b610893565b6040516102e69190611589565b60405180910390f35b6102f761091a565b60405161030491906113d1565b60405180910390f35b60606003805461031c906116ed565b80601f0160208091040260200160405190810160405280929190818152602001828054610348906116ed565b80156103955780601f1061036a57610100808354040283529160200191610395565b820191906000526020600020905b81548152906001019060200180831161037857829003601f168201915b5050505050905090565b60006103b36103ac610944565b848461094c565b6001905092915050565b6000600254905090565b60006103d4848484610b17565b6000600160008673ffffffffffffffffffffffffffffffffffffffff1673ffffffffffffffffffffffffffffffffffffffff168152602001908152602001600020600061041f610944565b73ffffffffffffffffffffffffffffffffffffffff1673ffffffffffffffffffffffffffffffffffffffff1681526020019081526020016000205490508281101561049f576040517f08c379a0000000000000000000000000000000000000000000000000000000008152600401610496906114c9565b60405180910390fd5b6104b3856104ab610944565b85840361094c565b60019150509392505050565b60006012905090565b600061056a6104d5610944565b8484600160006104e3610944565b73ffffffffffffffffffffffffffffffffffffffff1673ffffffffffffffffffffffffffffffffffffffff16815260200190815260200160002060008873ffffffffffffffffffffffffffffffffffffffff1673ffffffffffffffffffffffffffffffffffffffff1681526020019081526020016000205461056591906115db565b61094c565b6001905092915050565b3373ffffffffffffffffffffffffffffffffffffffff16600560009054906101000a900473ffffffffffffffffffffffffffffffffffffffff1673ffffffffffffffffffffffffffffffffffffffff1614610604576040517f08c379a00000000000000000000000000000000000000000000000000000000081526004016105fb90611449565b60405180910390fd5b61060e8282610d8d565b5050565b60008060008373ffffffffffffffffffffffffffffffffffffffff1673ffffffffffffffffffffffffffffffffffffffff168152602001908152602001600020549050919050565b606060048054610669906116ed565b80601f0160208091040260200160405190810160405280929190818152602001828054610695906116ed565b80156106e25780601f106106b7576101008083540402835291602001916106e2565b820191906000526020600020905b8154815290600101906020018083116106c557829003601f168201915b5050505050905090565b3373ffffffffffffffffffffffffffffffffffffffff16600560009054906101000a900473ffffffffffffffffffffffffffffffffffffffff1673ffffffffffffffffffffffffffffffffffffffff161461077c576040517f08c379a000000000000000000000000000000000000000000000000000000000815260040161077390611449565b60405180910390fd5b6107868282610ee1565b5050565b60008060016000610799610944565b73ffffffffffffffffffffffffffffffffffffffff1673ffffffffffffffffffffffffffffffffffffffff16815260200190815260200160002060008573ffffffffffffffffffffffffffffffffffffffff1673ffffffffffffffffffffffffffffffffffffffff16815260200190815260200160002054905082811015610856576040517f08c379a000000000000000000000000000000000000000000000000000000000815260040161084d90611549565b60405180910390fd5b61086a610861610944565b8585840361094c565b600191505092915050565b6000610889610882610944565b8484610b17565b6001905092915050565b6000600160008473ffffffffffffffffffffffffffffffffffffffff1673ffffffffffffffffffffffffffffffffffffffff16815260200190815260200160002060008373ffffffffffffffffffffffffffffffffffffffff1673ffffffffffffffffffffffffffffffffffffffff16815260200190815260200160002054905092915050565b6000600560009054906101000a900473ffffffffffffffffffffffffffffffffffffffff16905090565b600033905090565b600073ffffffffffffffffffffffffffffffffffffffff168373ffffffffffffffffffffffffffffffffffffffff1614156109bc576040517f08c379a00000000000000000000000000000000000000000000000000000000081526004016109b390611529565b60405180910390fd5b600073ffffffffffffffffffffffffffffffffffffffff168273ffffffffffffffffffffffffffffffffffffffff161415610a2c576040517f08c379a0000000000000000000000000000000000000000000000000000000008152600401610a2390611489565b60405180910390fd5b80600160008573ffffffffffffffffffffffffffffffffffffffff1673ffffffffffffffffffffffffffffffffffffffff16815260200190815260200160002060008473ffffffffffffffffffffffffffffffffffffffff1673ffffffffffffffffffffffffffffffffffffffff168152602001908152602001600020819055508173ffffffffffffffffffffffffffffffffffffffff168373ffffffffffffffffffffffffffffffffffffffff167f8c5be1e5ebec7d5bd14f71427d1e84f3dd0314c0f7b2291e5b200ac8c7c3b92583604051610b0a9190611589565b60405180910390a3505050565b600073ffffffffffffffffffffffffffffffffffffffff168373ffffffffffffffffffffffffffffffffffffffff161415610b87576040517f08c379a0000000000000000000000000000000000000000000000000000000008152600401610b7e90611509565b60405180910390fd5b600073ffffffffffffffffffffffffffffffffffffffff168273ffffffffffffffffffffffffffffffffffffffff161415610bf7576040517f08c379a0000000000000000000000000000000000000000000000000000000008152600401610bee90611429565b60405180910390fd5b610c028383836110ac565b60008060008573ffffffffffffffffffffffffffffffffffffffff1673ffffffffffffffffffffffffffffffffffffffff16815260200190815260200160002054905081811015610c88576040517f08c379a0000000000000000000000000000000000000000000000000000000008152600401610c7f906114a9565b60405180910390fd5b8181036000808673ffffffffffffffffffffffffffffffffffffffff1673ffffffffffffffffffffffffffffffffffffffff16815260200190815260200160002081905550816000808573ffffffffffffffffffffffffffffffffffffffff1673ffffffffffffffffffffffffffffffffffffffff1681526020019081526020016000206000828254610d1b91906115db565b925050819055508273ffffffffffffffffffffffffffffffffffffffff168473ffffffffffffffffffffffffffffffffffffffff167fddf252ad1be2c89b69c2b068fc378daa952ba7f163c4a11628f55a4df523b3ef84604051610d7f9190611589565b60405180910390a350505050565b600073ffffffffffffffffffffffffffffffffffffffff168273ffffffffffffffffffffffffffffffffffffffff161415610dfd576040517f08c379a0000000000000000000000000000000000000000000000000000000008152600401610df490611569565b60405180910390fd5b610e09600083836110ac565b8060026000828254610e1b91906115db565b92505081905550806000808473ffffffffffffffffffffffffffffffffffffffff1673ffffffffffffffffffffffffffffffffffffffff1681526020019081526020016000206000828254610e7091906115db565b925050819055508173ffffffffffffffffffffffffffffffffffffffff16600073ffffffffffffffffffffffffffffffffffffffff167fddf252ad1be2c89b69c2b068fc378daa952ba7f163c4a11628f55a4df523b3ef83604051610ed59190611589565b60405180910390a35050565b600073ffffffffffffffffffffffffffffffffffffffff168273ffffffffffffffffffffffffffffffffffffffff161415610f51576040517f08c379a0000000000000000000000000000000000000000000000000000000008152600401610f48906114e9565b60405180910390fd5b610f5d826000836110ac565b60008060008473ffffffffffffffffffffffffffffffffffffffff1673ffffffffffffffffffffffffffffffffffffffff16815260200190815260200160002054905081811015610fe3576040517f08c379a0000000000000000000000000000000000000000000000000000000008152600401610fda90611469565b60405180910390fd5b8181036000808573ffffffffffffffffffffffffffffffffffffffff1673ffffffffffffffffffffffffffffffffffffffff16815260200190815260200160002081905550816002600082825461103a9190611631565b92505081905550600073ffffffffffffffffffffffffffffffffffffffff168373ffffffffffffffffffffffffffffffffffffffff167fddf252ad1be2c89b69c2b068fc378daa952ba7f163c4a11628f55a4df523b3ef8460405161109f9190611589565b60405180910390a3505050565b505050565b6000813590506110c081611aac565b92915050565b6000813590506110d581611ac3565b92915050565b6000602082840312156110f1576110f061177d565b5b60006110ff848285016110b1565b91505092915050565b6000806040838503121561111f5761111e61177d565b5b600061112d858286016110b1565b925050602061113e858286016110b1565b9150509250929050565b6000806000606084860312156111615761116061177d565b5b600061116f868287016110b1565b9350506020611180868287016110b1565b9250506040611191868287016110c6565b9150509250925092565b600080604083850312156111b2576111b161177d565b5b60006111c0858286016110b1565b92505060206111d1858286016110c6565b9150509250929050565b6111e481611665565b82525050565b6111f381611677565b82525050565b6000611204826115bf565b61120e81856115ca565b935061121e8185602086016116ba565b61122781611782565b840191505092915050565b600061123f6023836115ca565b915061124a82611793565b604082019050919050565b60006112626020836115ca565b915061126d826117e2565b602082019050919050565b60006112856022836115ca565b91506112908261180b565b604082019050919050565b60006112a86022836115ca565b91506112b38261185a565b604082019050919050565b60006112cb6026836115ca565b91506112d6826118a9565b604082019050919050565b60006112ee6028836115ca565b91506112f9826118f8565b604082019050919050565b60006113116021836115ca565b915061131c82611947565b604082019050919050565b60006113346025836115ca565b915061133f82611996565b604082019050919050565b60006113576024836115ca565b9150611362826119e5565b604082019050919050565b600061137a6025836115ca565b915061138582611a34565b604082019050919050565b600061139d601f836115ca565b91506113a882611a83565b602082019050919050565b6113bc816116a3565b82525050565b6113cb816116ad565b82525050565b60006020820190506113e660008301846111db565b92915050565b600060208201905061140160008301846111ea565b92915050565b6000602082019050818103600083015261142181846111f9565b905092915050565b6000602082019050818103600083015261144281611232565b9050919050565b6000602082019050818103600083015261146281611255565b9050919050565b6000602082019050818103600083015261148281611278565b9050919050565b600060208201905081810360008301526114a28161129b565b9050919050565b600060208201905081810360008301526114c2816112be565b9050919050565b600060208201905081810360008301526114e2816112e1565b9050919050565b6000602082019050818103600083015261150281611304565b9050919050565b6000602082019050818103600083015261152281611327565b9050919050565b600060208201905081810360008301526115428161134a565b9050919050565b600060208201905081810360008301526115628161136d565b9050919050565b6000602082019050818103600083015261158281611390565b9050919050565b600060208201905061159e60008301846113b3565b92915050565b60006020820190506115b960008301846113c2565b92915050565b600081519050919050565b600082825260208201905092915050565b60006115e6826116a3565b91506115f1836116a3565b9250827fffffffffffffffffffffffffffffffffffffffffffffffffffffffffffffffff038211156116265761162561171f565b5b828201905092915050565b600061163c826116a3565b9150611647836116a3565b92508282101561165a5761165961171f565b5b828203905092915050565b600061167082611683565b9050919050565b60008115159050919050565b600073ffffffffffffffffffffffffffffffffffffffff82169050919050565b6000819050919050565b600060ff82169050919050565b60005b838110156116d85780820151818401526020810190506116bd565b838111156116e7576000848401525b50505050565b6000600282049050600182168061170557607f821691505b602082108114156117195761171861174e565b5b50919050565b7f4e487b7100000000000000000000000000000000000000000000000000000000600052601160045260246000fd5b7f4e487b7100000000000000000000000000000000000000000000000000000000600052602260045260246000fd5b600080fd5b6000601f19601f8301169050919050565b7f45524332303a207472616e7366657220746f20746865207a65726f206164647260008201527f6573730000000000000000000000000000000000000000000000000000000000602082015250565b7f2063616c6c6572206973206e6f74207468652061646d696e6973747261746f72600082015250565b7f45524332303a206275726e20616d6f756e7420657863656564732062616c616e60008201527f6365000000000000000000000000000000000000000000000000000000000000602082015250565b7f45524332303a20617070726f766520746f20746865207a65726f20616464726560008201527f7373000000000000000000000000000000000000000000000000000000000000602082015250565b7f45524332303a207472616e7366657220616d6f756e742065786365656473206260008201527f616c616e63650000000000000000000000000000000000000000000000000000602082015250565b7f45524332303a207472616e7366657220616d6f756e742065786365656473206160008201527f6c6c6f77616e6365000000000000000000000000000000000000000000000000602082015250565b7f45524332303a206275726e2066726f6d20746865207a65726f2061646472657360008201527f7300000000000000000000000000000000000000000000000000000000000000602082015250565b7f45524332303a207472616e736665722066726f6d20746865207a65726f20616460008201527f6472657373000000000000000000000000000000000000000000000000000000602082015250565b7f45524332303a20617070726f76652066726f6d20746865207a65726f2061646460008201527f7265737300000000000000000000000000000000000000000000000000000000602082015250565b7f45524332303a2064656372656173656420616c6c6f77616e63652062656c6f7760008201527f207a65726f000000000000000000000000000000000000000000000000000000602082015250565b7f45524332303a206d696e7420746f20746865207a65726f206164647265737300600082015250565b611ab581611665565b8114611ac057600080fd5b50565b611acc816116a3565b8114611ad757600080fd5b5056fea2646970667358221220864e62ec2feabd16b9081655a23780697738798f526c26c69811ed6a3903d2a764736f6c63430008050033a2646970667358221220ffef0311a569beb251906c383e3f3fcf03f044c75a00aba74eb2ff8bcb8b84d564736f6c63430008050033",
  "linkReferences": {},
  "deployedLinkReferences": {}
}